:060000000A128A1100291A
:10000800F000030EF1000B190E20710E8300F00EA4
:10001800700E090003138312F63081000B11F20AE7
:100028007208643C031919280800F201F40A7408DC
:100038000022880074080A3C03192620730800224D
:1000480087000800F401F30A740800228800730886
:08005800063C0319F301080046
:100200001D2107210E212A2103138312062903131E
:1002100083160F140F178F120F1208000313831683
:100220008112811101158114011403138312031328
:100230008312F63081000B11080003178316880122
:100240008901031383168701880103138312870131
:0C025000880108008B178B160B110800AA
:100400008A018A140F3982073F3406345B344F3433
:1004100066346D347D3407347F346F3477347C3404
:0804200039345E347934713483
:04400E00D420FF3F7C
:00000001FF
